{
  "_format": "hh-sol-artifact-1",
  "contractName": "Distributeur",
  "sourceName": "exercices/rush/sources/Distributeur.sol",
  "abi": [
    {
      "inputs": [],
      "stateMutability": "nonpayable",
      "type": "constructor"
    },
    {
      "inputs": [
        {
          "internalType": "enum Distributeur.mets",
          "name": "choice",
          "type": "uint8"
        }
      ],
      "name": "getMetsBalance",
      "outputs": [
        {
          "internalType": "uint256",
          "name": "",
          "type": "uint256"
        }
      ],
      "stateMutability": "view",
      "type": "function"
    },
    {
      "inputs": [
        {
          "internalType": "enum Distributeur.mets",
          "name": "",
          "type": "uint8"
        }
      ],
      "name": "metsBalance",
      "outputs": [
        {
          "internalType": "uint256",
          "name": "",
          "type": "uint256"
        }
      ],
      "stateMutability": "view",
      "type": "function"
    },
    {
      "inputs": [],
      "name": "owner",
      "outputs": [
        {
          "internalType": "address",
          "name": "",
          "type": "address"
        }
      ],
      "stateMutability": "view",
      "type": "function"
    },
    {
      "inputs": [
        {
          "internalType": "enum Distributeur.mets",
          "name": "choice",
          "type": "uint8"
        },
        {
          "internalType": "uint256",
          "name": "_amount",
          "type": "uint256"
        }
      ],
      "name": "setMetsBalance",
      "outputs": [],
      "stateMutability": "nonpayable",
      "type": "function"
    },
    {
      "inputs": [
        {
          "internalType": "uint256",
          "name": "_amount",
          "type": "uint256"
        },
        {
          "internalType": "enum Distributeur.mets",
          "name": "choice",
          "type": "uint8"
        }
      ],
      "name": "withdrawMets",
      "outputs": [],
      "stateMutability": "payable",
      "type": "function"
    }
  ],
  "bytecode": "0x6080604052660aa87bee538000600155600a60025534801561002057600080fd5b50336000806101000a81548173ffffffffffffffffffffffffffffffffffffffff021916908373ffffffffffffffffffffffffffffffffffffffff160217905550600254600360008060048111156100a1577f4e487b7100000000000000000000000000000000000000000000000000000000600052602160045260246000fd5b60048111156100d9577f4e487b7100000000000000000000000000000000000000000000000000000000600052602160045260246000fd5b815260200190815260200160002081905550600254600360006001600481111561012c577f4e487b7100000000000000000000000000000000000000000000000000000000600052602160045260246000fd5b6004811115610164577f4e487b7100000000000000000000000000000000000000000000000000000000600052602160045260246000fd5b81526020019081526020016000208190555060025460036000600260048111156101b7577f4e487b7100000000000000000000000000000000000000000000000000000000600052602160045260246000fd5b60048111156101ef577f4e487b7100000000000000000000000000000000000000000000000000000000600052602160045260246000fd5b8152602001908152602001600020819055506002546003600060036004811115610242577f4e487b7100000000000000000000000000000000000000000000000000000000600052602160045260246000fd5b600481111561027a577f4e487b7100000000000000000000000000000000000000000000000000000000600052602160045260246000fd5b815260200190815260200160002081905550600254600360006004808111156102cc577f4e487b7100000000000000000000000000000000000000000000000000000000600052602160045260246000fd5b6004811115610304577f4e487b7100000000000000000000000000000000000000000000000000000000600052602160045260246000fd5b815260200190815260200160002081905550610ad4806103256000396000f3fe60806040526004361061004a5760003560e01c8063062727161461004f5780635b7ad72f146100785780638da5cb5b146100b55780639c2d61cf146100e0578063ec3cb0bc146100fc575b600080fd5b34801561005b57600080fd5b50610076600480360381019061007191906106f5565b610139565b005b34801561008457600080fd5b5061009f600480360381019061009a91906106cc565b6103b4565b6040516100ac91906108b2565b60405180910390f35b3480156100c157600080fd5b506100ca6103cc565b6040516100d79190610817565b60405180910390f35b6100fa60048036038101906100f59190610731565b6103f0565b005b34801561010857600080fd5b50610123600480360381019061011e91906106cc565b610615565b60405161013091906108b2565b60405180910390f35b60008054906101000a900473ffffffffffffffffffffffffffffffffffffffff1673ffffffffffffffffffffffffffffffffffffffff163373ffffffffffffffffffffffffffffffffffffffff16146101c7576040517f08c379a00000000000000000000000000000000000000000000000000000000081526004016101be90610872565b60405180910390fd5b60025460036000846004811115610207577f4e487b7100000000000000000000000000000000000000000000000000000000600052602160045260246000fd5b600481111561023f577f4e487b7100000000000000000000000000000000000000000000000000000000600052602160045260246000fd5b8152602001908152602001600020548261025991906108de565b111561029a576040517f08c379a000000000000000000000000000000000000000000000000000000000815260040161029190610892565b60405180910390fd5b80600360008460048111156102d8577f4e487b7100000000000000000000000000000000000000000000000000000000600052602160045260246000fd5b6004811115610310577f4e487b7100000000000000000000000000000000000000000000000000000000600052602160045260246000fd5b81526020019081526020016000205461032991906108de565b60036000846004811115610366577f4e487b7100000000000000000000000000000000000000000000000000000000600052602160045260246000fd5b600481111561039e577f4e487b7100000000000000000000000000000000000000000000000000000000600052602160045260246000fd5b8152602001908152602001600020819055505050565b60036020528060005260406000206000915090505481565b60008054906101000a900473ffffffffffffffffffffffffffffffffffffffff1681565b816003600083600481111561042e577f4e487b7100000000000000000000000000000000000000000000000000000000600052602160045260246000fd5b6004811115610466577f4e487b7100000000000000000000000000000000000000000000000000000000600052602160045260246000fd5b81526020019081526020016000205410156104b6576040517f08c379a00000000000000000000000000000000000000000000000000000000081526004016104ad90610832565b60405180910390fd5b6001543410156104fb576040517f08c379a00000000000000000000000000000000000000000000000000000000081526004016104f290610852565b60405180910390fd5b8160036000836004811115610539577f4e487b7100000000000000000000000000000000000000000000000000000000600052602160045260246000fd5b6004811115610571577f4e487b7100000000000000000000000000000000000000000000000000000000600052602160045260246000fd5b81526020019081526020016000205461058a9190610934565b600360008360048111156105c7577f4e487b7100000000000000000000000000000000000000000000000000000000600052602160045260246000fd5b60048111156105ff577f4e487b7100000000000000000000000000000000000000000000000000000000600052602160045260246000fd5b8152602001908152602001600020819055505050565b600060036000836004811115610654577f4e487b7100000000000000000000000000000000000000000000000000000000600052602160045260246000fd5b600481111561068c577f4e487b7100000000000000000000000000000000000000000000000000000000600052602160045260246000fd5b8152602001908152602001600020549050919050565b6000813590506106b181610a77565b92915050565b6000813590506106c681610a87565b92915050565b6000602082840312156106de57600080fd5b60006106ec848285016106a2565b91505092915050565b6000806040838503121561070857600080fd5b6000610716858286016106a2565b9250506020610727858286016106b7565b9150509250929050565b6000806040838503121561074457600080fd5b6000610752858286016106b7565b9250506020610763858286016106a2565b9150509250929050565b61077681610968565b82525050565b60006107896019836108cd565b9150610794826109d3565b602082019050919050565b60006107ac6010836108cd565b91506107b7826109fc565b602082019050919050565b60006107cf6015836108cd565b91506107da82610a25565b602082019050919050565b60006107f26017836108cd565b91506107fd82610a4e565b602082019050919050565b6108118161099a565b82525050565b600060208201905061082c600083018461076d565b92915050565b6000602082019050818103600083015261084b8161077c565b9050919050565b6000602082019050818103600083015261086b8161079f565b9050919050565b6000602082019050818103600083015261088b816107c2565b9050919050565b600060208201905081810360008301526108ab816107e5565b9050919050565b60006020820190506108c76000830184610808565b92915050565b600082825260208201905092915050565b60006108e98261099a565b91506108f48361099a565b9250827fffffffffffffffffffffffffffffffffffffffffffffffffffffffffffffffff03821115610929576109286109a4565b5b828201905092915050565b600061093f8261099a565b915061094a8361099a565b92508282101561095d5761095c6109a4565b5b828203905092915050565b60006109738261097a565b9050919050565b600073ffffffffffffffffffffffffffffffffffffffff82169050919050565b6000819050919050565b7f4e487b7100000000000000000000000000000000000000000000000000000000600052601160045260246000fd5b7f536f7272792c206e6f20656e6f75676820696e2073746f636b00000000000000600082015250565b7f4e6f7420656e6f7567682066756e647300000000000000000000000000000000600082015250565b7f596f7520617265206e6f7420746865206f776e65720000000000000000000000600082015250565b7f63616e277420657863656564206d617820737570706c79000000000000000000600082015250565b60058110610a8457600080fd5b50565b610a908161099a565b8114610a9b57600080fd5b5056fea2646970667358221220f0ae2bcb5eb59d9df1dad003b1711f8d52c8b35860a354258d21a72bed54cb9264736f6c63430008040033",
  "linkReferences": {},
  "deployedLinkReferences": {}
}